S00E000044415F315F432E737265635F
S11300000C9434000C943E000C943E000C943E007E
S11300100C943E000C943E000C943E000C943E0064
S11300200C943E000C943E000C943E000C943E0054
S11300300C943E000C943E000C943E000C943E0044
S11300400C943E000C943E000C943E000C943E0034
S11300500C943E000C943E000C943E000C943E0024
S11300600C943E000C943E0011241FBECFEFD8E048
S1130070DEBFCDBF0E9440000C9456000C940000DB
S11300802CE231E083E290E007C00196811541E063
S1130090940711F480E090E021503109B1F78CE22B
S11300A091E00197F1F780E090E00895F894FFCF94
S9030000FC
